:020000040800F2
:10000000B826002021020008011E0008451900083A
:10001000FF1D00088F0400081122000800000000E6
:10002000000000000000000000000000890100083E
:100030009104000800000000CD0100088D1F000899
:100040003B0200083B0200083B0200083B0200089C
:100050003B0200083B0200083B0200083B0200088C
:100060003B0200083B0200083B0200083B0200087C
:100070003B0200083B0200083B0200083B0200086C
:100080003B0200083B0200083B0200083B0200085C
:100090003B0200083B0200083B0200083B0200084C
:1000A0003B0200083B0200083B0200083B0200083C
:1000B0003B0200083B0200083B0200083B0200082C
:1000C0003B0200083B0200083B0200083B0200081C
:1000D0003B020008052200083B0200083B02000822
:1000E0003B0200083B0200083B02000800F002F857
:1000F00000F03AF80AA090E8000C82448344AAF188
:100100000107DA4501D100F02FF8AFF2090EBAE885
:100110000F0013F0010F18BFFB1A43F0010318473B
:1001200084390000A4390000103A24BF78C878C18F
:10013000FAD8520724BF30C830C144BF04680C60ED
:10014000704700000023002400250026103A28BF35
:1001500078C1FBD8520728BF30C148BF0B60704739
:100160001FB51FBD10B510BD00F058F91146FFF7BF
:10017000F7FF02F05FF800F076F903B4FFF7F2FF43
:1001800003BC00F07DF90000224B19680868B0E854
:10019000F00F80F30988BFF36F8F4FF0000080F3FA
:1001A00011884EF00D0E70470000000006480068F0
:1001B000006880F3088862B661B6BFF34F8FBFF363
:1001C0006F8F00DF00BF00BF08ED00E0EFF3098094
:1001D000BFF36F8F0F4B1A6820E9F00F106008B55E
:1001E0004FF0500080F31188BFF34F8FBFF36F8F34
:1001F00002F02EFF4FF0000080F31188BDE80840A8
:1002000019680868B0E8F00F80F30988BFF36F8FB2
:10021000704700BF20000020EFF30580704700000A
:100220000948804709480047FEE7FEE7FEE7FEE78A
:10023000FEE7FEE7FEE7FEE7FEE7FEE704480549C6
:10024000054A064B70470000F11F0008ED0000084A
:10025000B8200020B8260020B8220020B8220020B4
:10026000B2F120030AD5C2F1200320FA02F001FA0C
:1002700003F321FA02F140EA0300704721FA03F088
:100280004FF000017047032A40F2308010F0030C59
:1002900000F0158011F8013BBCF1020F624498BFD9
:1002A00011F801CB00F8013B38BF11F8013BA2F176
:1002B000040298BF00F801CB38BF00F8013B11F0F1
:1002C000030300F05780083AC0F0088051F8043B5F
:1002D000083A51F804CBA0E80810F5E7121D5CBFFE
:1002E00051F8043B40F8043BAFF30080D20724BF31
:1002F00011F8013B11F801CB48BF11F8012B24BFC5
:1003000000F8013B00F801CB48BF00F8012B704713
:1003100002F0FF0343EA032242EA024200F05EB821
:100320004FF0000200B5134694469646203922BF8E
:10033000A0E80C50A0E80C50B1F12001BFF4F7AFD9
:10034000090728BFA0E80C5048BF0CC05DF804EBBB
:10035000890028BF40F8042B08BF704748BF20F829
:10036000022B11F0804F18BF00F8012B7047704727
:100370007047704710B5203AC0F00B80B1E81850B4
:10038000203AA0E81850B1E81850A0E81850BFF47F
:10039000F5AF5FEA027C24BFB1E81850A0E818501E
:1003A00044BF18C918C0BDE810405FEA827C24BF72
:1003B00051F8043B40F8043B08BF7047D20728BF00
:1003C00031F8023B48BF11F8012B28BF20F8023B4F
:1003D00048BF00F8012B70474FF000020429C0F01D
:1003E000128010F0030C3FF49DAFCCF1040CBCF173
:1003F000020F18BF00F8012BA8BF20F8022BA1EBB9
:100400000C01FFF78FBF5FEAC17C24BF00F8012B0E
:1004100000F8012B48BF00F8012B7047754600F02B
:100420002BF8AE4605006946534620F00700854686
:1004300018B020B5FFF702FFBDE820404FF00006DE
:100440004FF000074FF000084FF0000B21F00701BC
:10045000AC46ACE8C009ACE8C009ACE8C009ACE8FF
:10046000C0098D46704710B50446AFF300802046A2
:10047000BDE81040FFF781BE0048704754200020BF
:1004800001491820ABBEFEE7260002007047FEE7D8
:100490007047000006490020C8610648016941F024
:1004A00004010161016941F04001016170470000F0
:1004B0006007002000200240064A0021D161064961
:1004C0000A6942F002020A614861086940F040008E
:1004D000086170476007002000200240044B0022A2
:1004E000DA61044A136943F0010313610180704724
:1004F000600700200020024014480022C168CB069B
:10050000134904D5CA6942F00202CA611022C368C5
:100510005B0705D5CB6943F00103CB6142F00402D0
:10052000C369DB0707D0CB6943F00403CB61C16922
:1005300021F00101C161A2F58071013901D0C260D1
:100540007047C16921F00101C1617047002002407C
:100550006007002070B5054600F038FA0646114CD9
:1005600009E0681C07D025B100F030FA801BA842D2
:1005700001D9032070BDE068C007F2D1E0688006B1
:1005800001D52020E060E068C00605D4E069C0071E
:1005900002D1E068400703D5FFF7AEFF012070BD30
:1005A000002070BD0020024010B590F821100022FC
:1005B000022905D00421816380F82020012010BD8C
:1005C00001680B6823F00E030B6001680B6823F0D1
:1005D00001030B6090F84030C46B012101FA03F372
:1005E000636080F8211080F82020104610BD0000C4
:1005F00010B590F821100024022903D00421816352
:1006000001243DE001680A6822F00E020A600168D8
:100610000A6822F001020A601A4A0168914201D177
:10062000012121E0174A1432914201D110211BE02F
:10063000144A2832914201D1891515E0114A3C3201
:10064000914201D189140FE00E4A5032914202D1F9
:100650004FF4803108E00B4A6432914202D14FF4EA
:10066000801101E04FF08071064A083A5160012183
:1006700080F82110002180F82010416B01B18847DB
:10068000204610BD080002402DE9F04705462648E7
:100690000F460126017E01290FD0012181460176F6
:1006A0002868DFF888804CF25034022808D0A2462F
:1006B0002046FFF74FFFA8B131E00220BDE8F087E8
:1006C0002046FFF747FF08BB0120FFF7E3FE204667
:1006D000FFF740FFD8F81010064621F00401C8F8D3
:1006E00010101CE04FF0FF303860AC6811E020467D
:1006F000FFF7E2FE5046FFF72DFFD8F81010060076
:1007000021F00201C8F8101001D03C6007E004F5A8
:100710008064D5E9020100EB8120A042E7D80021E6
:1007200089F818103046C9E7600700200020024011
:100730000348016941F08001016100207047000019
:10074000002002402DE9F05F07461C48884600243F
:10075000017E15461E46012909D0012181460176F8
:100760004CF2503A5046FFF7F5FE18B122E0022055
:10077000BDE8F09F012F02D0022F00D00427D346FE
:10078000DFF83CA0220128463146FFF769FD81B21F
:1007900008EB4400FFF7A2FE5846FFF7DBFEDAF84D
:1007A000102022F00102CAF8102018B9641CE4B22B
:1007B000BC42E7D3002289F81820D9E7600700205F
:1007C00000200240064900200A69120607D5054AA2
:1007D0004A60054A4A600969090600D50120704748
:1007E0000020024023016745AB89EFCD2DE9F84F8A
:1007F000DFF8B891002409F1040A0AF1040B23463A
:100800000F270BF1040EC9E00125A5402A40AA429A
:100810007DD1674ED1F804C0ACEB0608B44532D0A8
:1008200014DCBCF1030F3AD009DCBCF1000F2AD074
:10083000BCF1010F1CD0BCF1020F31D11DE0BCF1A5
:10084000110F17D0BCF1120F2AD119E0B8F5881F8B
:1008500019D006DCB8F5803F15D0B8F5801F1FD140
:1008600011E0B8F5001F0ED0B8F5041F18D10AE04A
:10087000CB6815E0CB681B1D12E0CB6808330FE096
:10088000CB680C330CE08B682BB1012B4FF00803C5
:1008900003D0456104E0042302E0056100E0002389
:1008A000FF2A01D8064601E000F104064FEA84055C
:1008B00001D9A5F12005D6F8008007FA05FC28EA41
:1008C0000C0803FA05F548EA0508C6F800804D68EB
:1008D000ED0062D5374DAE6946F00106AE61AD69F7
:1008E00024F0030605F001050095334D06EB050CD9
:1008F000DCF80850A607360F07FA06F825EA0805BF
:10090000DFF8B880404503D14FF0000817E044E01D
:10091000DFF8AC80404502D14FF001080FE0DFF86E
:10092000A480404502D14FF0020808E0DFF898802B
:10093000404502D14FF0030801E04FF0040808FAE7
:1009400006F848EA0508CCF808804D68D9F8006038
:10095000ED034D4601D5164300E096432E604D68E9
:10096000DAF80060AD03554601D5164300E0964322
:100970002E604D68DBF80060ED025D4601D5164340
:1009800000E096432E604D68DEF80060AD027546CB
:1009900001D5164300E096432E60641C0D682A467C
:1009A000E5407FF431AFBDE8F88F0000000401405E
:1009B000000011100010024000000140000801403A
:1009C000000C014000100140001401400148806803
:1009D000704700001000002070B5040025D094F886
:1009E0003D00002520B984F83C50204600F078FAFC
:1009F000242084F83D002068016821F00101016095
:100A00002068016841F4004101602068016821F418
:100A10000041016000F0C6FB4D4A6168914201D877
:100A20004C4900E04C49884201D2012070BD4B493D
:100A30002368B0FBF1F15E6826F03F060E435E606E
:100A40006368934206D94FF4967359434FF47A730F
:100A5000B1FBF3F12368491C1E6A26F03F063143BF
:100A600019626168914210D84900401EB0FBF1F252
:100A7000521CC2F30B02042A01D2042022E0B0FB74
:100A8000F1F0401CC0F30B001CE0A268F2B301EBD4
:100A9000C10303EB0116431EB3FBF6F35B1C43F4E7
:100AA00080431B0549D092B301EBC10202EB011157
:100AB000401EB0FBF1F0401CC0F30B0040F480403E
:100AC00040F400402168CA694CF6FF739A43104312
:100AD000C861D4E9071001432068026822F0C0020F
:100AE00011430160D4E9030101432068826848F2A0
:100AF000FF339A4311438160D4E90501084321681B
:100B0000CA6822F0FF021043C86001E00EE016E060
:100B10002068016841F0010101602564202084F80B
:100B20003D00256384F83E50002070BD01EB410676
:100B3000431EB3FBF6F35B1CB3E70120C2E701EBF6
:100B40004101401EB0FBF1F0401CC0F30B00B7E7C1
:100B5000A086010080841E0000093D0040420F0075
:100B60002DE9FF4F83B00025DDE910799A469346C1
:100B70000446DDF848800095FFF728FF064694F804
:100B80003D0020287CD1192301228549204600966A
:100B900000F0E8FF0028F5D194F83C0001286FD060
:100BA000012084F83C0020680168C90703D101686E
:100BB00041F0010101602068016821F400610160D9
:100BC000222084F83D00402084F83E0025646762BE
:100BD000A4F82A90608D20857248E062CDE90086F5
:100BE00053465A462046049900F0C4FE00287DD1A1
:100BF000208DDFF8B491202768B1012814D0022895
:100C0000206801681ED041F480610160206841695C
:100C100080690090B6E020684169816900910168AF
:100C200041F400710160ADE02068016821F4806149
:100C3000016072B62068416981690091016841F4E0
:100C400000710AE041F40061016072B620684169F8
:100C500081690091016821F48061016062B691E0D0
:100C6000032868D801280CD0022843464FF0000220
:100C70004946204600960FD000F074FFB0BB10E04C
:100C80008BE032464146204600F0EBFF70BB206807
:100C90000069616A08706CE000F064FF30BB72B6F6
:100CA00034E02068016821F48061016072B6206838
:100CB0000069616A0870606A401C6062208D401E95
:100CC0002085608D401E6085384846F2A811006876
:100CD000B0FBF1F0C0EBC00000EB80000090401EC4
:100CE000009008D020684069C04300E029E0400738
:100CF0000CD50098F3E744F8305F6773A57320695B
:100D000040F02000206162B625731AE02068016877
:100D100041F40071016020680069616A0870606ACE
:100D2000401C6062218D491E2185618D491E6185AF
:100D300062B621681BE032464146204600F091FF32
:100D400018B1012007B0BDE8F08F20680069616A22
:100D50000870606A401C6062218D491E2185618D8A
:100D6000491E618521684A69D24352070AD409693C
:100D70000170606A401C6062208D401E2085608D7D
:100D8000401E6085208D00287FF46AAF84F83D7096
:100D900084F83E5084F83C50D4E70220D2E70000AB
:100DA000020010000000FFFF040001001C000020F2
:100DB0002DE9FF4F83B09A46DDE91197934604462B
:100DC000DDF84080FFF702FE054694F83D0020283C
:100DD0007FD11923012240492046009500F0C2FE30
:100DE000002876D194F83C00012872D0012084F8C4
:100DF0003C0020680168C90703D1016841F0010186
:100E000001602068016821F400610160212084F8FC
:100E10003D00402084F83E0000262664C4F824806B
:100E2000A4F82A90608D20852C48E062CDE90075F9
:100E300053465A462046049900F01AFE70B930E035
:100E40002A463946204600F03FFF58B1206C04285E
:100E500004D12068016841F400710160012007B0ED
:100E6000BDE8F08F606A216800780861606A401C04
:100E70006062218D491E89B22185628D521E628574
:100E800022685369DB435B070BD469B100781061BA
:100E9000606A401C6062208D401E2085608D401E6F
:100EA0006085208D0028CBD12A463946204600F0A7
:100EB00033FE0028CAD154F83D0B016841F400719B
:100EC0000160202004F81E09E67766770020C6E757
:100ED000FFE70220C3E70000020010000000FFFF50
:100EE00010B586B000210091019102910391006834
:100EF0000F4988421AD10F4CA06940F00800A06148
:100F0000A069694600F008000490C02000901220FB
:100F10000190032003900848FFF768FCE06940F463
:100F20000010E061E06900F40010049006B010BD0C
:100F30000054004000100240000C0140024881684B
:100F4000027811448160704710000020074810B5F6
:100F5000016841F010010160032000F07BF80F20D0
:100F600000F006F800F024F8002010BD0020024038
:100F700070B50D4D04464FF47A712878B1FBF0F04E
:100F80000A490968B1FBF0F000F0F2FA48B9102CF8
:100F900007D200222146501E00F03CF800206C6071
:100FA00070BD012070BD0000100000201C0000205A
:100FB0000F4808B5816941F001018161816901F043
:100FC00001010091C16941F08051C161C0690022F5
:100FD00000F0805000900F21901E00F01BF8054893
:100FE000416821F0E06141F00071416008BD0000FE
:100FF0000010024000000140002809DB00F01F0241
:10100000012191404009800000F1E020C0F800116A
:1010100070470000F0B40E4B1B680C46C3F302236C
:10102000C3F10705042D00D90425191D072901D294
:10103000002300E0DB1E012606FA05F1491E2140CF
:1010400099409E40761E16403143F0BC01F0E1B855
:101050000CED00E0064900F0070208684FF6FF03B8
:10106000184040EA0220034A10430860704700001D
:101070000CED00E00000FA052DE9F0470F460500F1
:1010800061D0434E306800F00700B84209D23068A2
:1010900020F0070038433060306800F00700B842A5
:1010A00051D128683B4C810712D5400703D56068B1
:1010B00040F4E06060602878000703D5606840F481
:1010C000605060606068A96820F0F00008436060CC
:1010D0002878C00728D06868012810D02168022825
:1010E00010D0890700292EDA616821F0030101433D
:1010F0006160FFF76BFC804641F288390DE02168A2
:101100008903EFE78901EDE7FFF760FCA0EB080139
:10111000494502D90320BDE8F0876068696800F09E
:101120000C00B0EB810FEFD1306800F00700B8423F
:101130000BD9306820F0070038433060306800F089
:101140000700B84201D00120E5E72878400705D51F
:101150006068E96820F4E060084360602878000770
:1011600006D56068296920F4605040EAC1006060DB
:1011700000F038F86168084AC1F30311515CC840B7
:101180000649086006480068FFF7F2FE0020C2E743
:101190000020024000100240803A00081C0000209D
:1011A000140000200448054900684968044AC1F356
:1011B0000221515CC84070471C0000200010024012
:1011C000903A00080448054900684968044AC1F398
:1011D000C221515CC84070471C0000200010024032
:1011E000903A000812A185B00FC98DE80F0014A035
:1011F000144A006804905168134801F00C03042B52
:1012000010D0082B0ED1C1F38343C9031DF803008E
:101210000AD5516804AAC1F34041515C0A4A5043BF
:10122000B0FBF1F005B0704708494843FAE7000009
:1012300002030405060708090A0B0C0D0E0F101017
:10124000010200000010024000127A0000093D0077
:101250002DE9F84F040070D02078C04DC00749D068
:101260006868C0F38100012807D06868C0F3810076
:10127000022809D16868C00306D52868800339D5DB
:1012800060680028E7D035E06068B0F5803F0BD09B
:1012900010B1B0F5A02F11D0286820F4803028605C
:1012A000286820F4802002E0286840F4803028601C
:1012B000606890B1FFF78AFB06460AE0286840F4B0
:1012C00080202860F0E700BFFFF780FB801B6428C8
:1012D00073D828688003F7D50CE0FFF777FB064644
:1012E00005E000BFFFF772FB801B6428F0D8286878
:1012F0008003F7D420789A4E80074FF001094FF011
:10130000000839D5686810F00C0F07D06868C0F382
:101310008100022809D16868C00306D428688007C4
:1013200014D52069012808D110E02069B0B1C6F8B1
:101330000090FFF74BFB074605E00AE1FFF746FB8D
:10134000C01B0228C4D828688007F7D528686169BF
:1013500020F0F80040EAC10028600DE0C6F80080E7
:10136000FFF734FB074604E0FFF730FBC01B022801
:1013700023D828688007F7D4207800072CD579482F
:10138000A169D9B1C0F80090FFF720FB074604E03F
:10139000FFF71CFBC01B02280FD8686A8007F7D52F
:1013A00071484FF4FA510068B0FBF1F0009000BFB3
:1013B0000098411E0091FAD20EE080E0C0F8008053
:1013C000FFF704FB074604E0FFF700FBC01B022801
:1013D00075D8686A8007F7D42078400760D5E86937
:1013E0000027C00008D4E86940F08050E861E8694F
:1013F000012700F0805000905C480168C90513D4B3
:101400000168834641F480710160FFF7DFFA82468C
:1014100006E000BFFFF7DAFAA0EB0A0064284ED816
:10142000DBF80000C005F5D5E06801280AD008B156
:10143000052813D0286A20F001002862286A20F0CD
:10144000040002E0286A40F001002862E06841F2EE
:10145000883B98B1FFF7BAFA82460BE0286A40F061
:1014600004002862EEE700BFFFF7B0FAA0EB0A0124
:1014700059455AD8286A8007F6D50CE0FFF7A6FA36
:10148000824605E0FFF7A2FAA0EB0A0159454CD8C5
:10149000286A8007F6D41FB1E86920F08050E8611F
:1014A000E06988B36968C1F38101022944D0022848
:1014B000C6F8608004D0FFF789FA044638E034E0CB
:1014C000FFF784FA074604E0FFF780FAC01B022802
:1014D0002BD828688001F7D4206AB0F5803F05D169
:1014E0006868A16820F4003008436860D4E9080106
:1014F0000843696821F4741108436860C6F8609075
:10150000FFF764FA044606E025E000BFFFF75EFA45
:10151000001B022809D828688001F7D51BE000BF0E
:10152000FFF754FA001B022802D90320BDE8F88F08
:1015300028688001F4D40EE00128F7D06868226A98
:1015400000F48031914204D1616A00F47010884245
:1015500001D00120EAE70020E8E700000010024087
:1015600000004242800442421C0000200070004003
:1015700010B5401EB0F1807F01D3012010BD4FF0A7
:10158000E02460610F21601700F043FE0020A0619D
:1015900007202061002010BD70477047F8B5026831
:1015A00004461068D168536910F00F0F4FF0000522
:1015B00053D003F0010601F4907737435FD0C207A0
:1015C00005D0CA0503D5226C42F00102226442070D
:1015D00005D5DA0703D0226C42F0020222648207AA
:1015E00005D5DA0703D0226C42F004022264020718
:1015F00007D501F02002324303D0226C42F00802EA
:101600002264226C002A34D0800604D5880602D5D4
:10161000204600F00EFD20684069216CC0F3801068
:10162000090700D430B3204600F0EBFC2068416984
:1016300049061BD5416921F040014161A06BA8B169
:1016400058494163A06BFEF7D3FF002811D0A06B6F
:10165000416B01B0BDE8F040084783060FD58B060B
:101660000DD52046BDE8F84000F0E3BC2046FFF76A
:1016700094FFF8BD2046FFF790FF2564F8BD266B68
:101680002023012E52D1C60650D5CE064ED5106865
:1016900050680090506940062AD5A16B08684068E0
:1016A0000004000CEAD0A68D8642E7D9E08588695F
:1016B000202818D0D06820F48070D060206841695C
:1016C00021F0010141612068416921F0400141613F
:1016D00084F83E3025632068C16821F01001C160A4
:1016E000A06BFEF761FFA08DE18D401A81B219E079
:1016F000A08DE18D401A81B2E08D0028BED0002976
:10170000BCD0D06820F49070D0602068426922F08C
:101710000102426184F83E3025632068C26822F0ED
:101720001002C2602046FFF737FFF8BD05062BD533
:101730000D0629D594F83D002128F6D1A068B0F512
:10174000805F01D12069B0B1206A411C216221680B
:1017500000784860E08C401E0004000CE084E4D176
:101760002068C16821F08001C1602068C16841F033
:101770004001C160F8BD206A0088C0F308005060D5
:10178000206A801C2062E5E74006F3D54806F1D5C3
:10179000D168204621F04001D16084F83D3000F04E
:1017A000D0F8F8BDF31F000870B5040004D094F819
:1017B0003D00002510B106E0012070BD84F83C50CA
:1017C000204600F023F8242084F83D002068C168FA
:1017D00021F40051C160204600F086FC20680169B8
:1017E00021F4904101612068416921F02A014161A1
:1017F0002068C16841F40051C1602564202084F84C
:101800003D0084F83E00002070BD000030B585B07A
:1018100000240094019402940394006818498842BB
:101820002CD11848816941F480418161816901F4BA
:1018300080410491816941F0040181618069124D08
:1018400000F0040004904FF400700090022001901A
:101850000320039069462846FEF7C8FF2815CDE906
:101860000004694628460294FEF7C0FF00220521C5
:101870002520FFF7CFFB2520FFF7BEFB05B030BDCD
:10188000003801400010024000080140704700008D
:101890002DE9F843044690F83D001F4616460D46D4
:1018A00020284CD1C5B1BEB194F83C00012846D0E7
:1018B000012084F83C004FF00008C4F8408021204B
:1018C00084F83D00FFF782F8A6848146E684A0688C
:1018D000B0F5805F03D004E00120BDE8F883206903
:1018E00028B12E465FF0000584F83C800EE000260B
:1018F000FAE78021204600F053FCA0B9AEB116F8FB
:10190000010B21684860E08C401EE084E08C4B466F
:101910004FF0000200970028EBD14FF04001204625
:1019200000F03EFC30B10320D7E735F8020BC0F3DE
:101930000800E6E7202084F83D000020CDE70220E3
:10194000CBE77047FEE701684A69D24352050FD4DE
:101950006FF480624A61002140F8301F20224273F8
:101960008173026942F00402026101730120704731
:10197000002070472DE9F84F0446006889460B9D0A
:1019800001689846174641F480610160206801684B
:1019900041F48071016000954FF0011B002259460F
:1019A00020460A9B00F0DEF84FF4007A40B1206830
:1019B0000068C00501D5C4F840A00320BDE8F88F39
:1019C000216809F0FE0008612B46284920460A9A42
:1019D00000F0FCF8F0BB20684169806900902A465D
:1019E00020460A9900F070F940B1206C04283AD1E1
:1019F0002068016841F40071016034E0FEB2B8F182
:101A0000010F09D02168380A08612A4620460A9940
:101A100000F05AF90028E8D1206806612A462046DD
:101A20000A9900F051F90028DFD12068016841F4DB
:101A30008071016000950022594620460A9B00F003
:101A400091F80028B3D1216809F0FF0040F00100AF
:101A5000086100E007E02B46044920460A9A00F09E
:101A6000B5F80028AAD00120A8E700000200010074
:101A70002DE9F843044600680D46DDE90897016842
:101A80009846164641F4807101604B4600224FF0A3
:101A900001112046009700F065F848B12068006801
:101AA000C00502D54FF4007020640320BDE8F88320
:101AB000216805F0FE0008613B464A46154920466C
:101AC00000F084F888B920684169806900903A463E
:101AD0004946204600F0F8F848B1206C042804D1AB
:101AE0002068016841F4007101600120DEE7F5B271
:101AF000B8F1010F09D02168300A08613A46494619
:101B0000204600F0E1F80028E7D1206805610020B8
:101B1000CCE700000200010070B516460D460446F1
:101B20000DE02046FFF70FFF08B1012070BD681CD3
:101B300005D0FEF74BFF801BA84207D835B12068BF
:101B40004069C0434007ECD4002070BD002044F839
:101B5000300F20216173A073216941F020012161C0
:101B60002073E2E72DE9F0471E4690460D460446F5
:101B7000C1F30747DDF8209008E0701C06D0FEF79F
:101B800025FFA0EB0900B0420FD876B12068012FE5
:101B900018D0806925EA00000004000C14D0002150
:101BA0004145EAD00020BDE8F087002044F8300F1E
:101BB00020216173A073216941F02001216120730C
:101BC0000120F0E74069E5E70121E9E72DE9F04769
:101BD0009A4691460E46044600254FF02008C1F370
:101BE000074725E020684069C043400514D42068B9
:101BF000016841F40071016021686FF48060486100
:101C0000256384F83D8084F83E50206C40F0040049
:101C1000206484F83C501FE0B9F1FF3F08D0FEF784
:101C2000D5FEA0EB0A0149450CD8B9F1000F09D047
:101C30002068012F13D0806926EA00000004000C00
:101C40000BD0CFE744F8305F84F80D80A57320698E
:101C500040F02000206125730120BDE8F087406935
:101C6000EAE72DE9F041002590460E46044620277C
:101C700017E04069C043C0060CD454F8301B6FF025
:101C80001000486144F810596777A577206A2062F0
:101C9000257717E0FEF79AFEA0EB0800B04208D8BF
:101CA0003EB120684169C9434906E2D40020BDE83D
:101CB000F08144F8305F6773A573206940F020001D
:101CC000206125730120F2E770B516460D460446E3
:101CD0000DE02046FFF737FE08B1012070BD681CFB
:101CE00005D0FEF773FE801BA84207D835B12068E7
:101CF0004069C0430006ECD4002070BD002044F8C9
:101D0000300F20216173A073216941F0200121610E
:101D10002073E2E72DE9F04186B08046012504A852
:101D2000CDE9000564242B467522D021029440465B
:101D3000FEF716FF9DF81000682803D0012006B0BA
:101D4000BDE8F081002703AE8DF80C700096CDE958
:101D5000015401236B22D0214046FFF729F80720C8
:101D60008DF80C000096CDE9015401231922D021F1
:101D70004046FFF71DF88DF80C700096CDE9015430
:101D800001231C22D0214046FFF712F88DF80C7079
:101D90000096CDE9015401231B22D0214046FFF7D4
:101DA00007F80020CBE710B586B00C466423062266
:101DB00003A98DE80E0001234322D021FEF7D0FEB7
:101DC000BDF80C0040BA2080BDF80E0040BA60801B
:101DD000BDF8100040BAA08006B010BD1FB50C467B
:101DE0006423022203A98DE80E0001234122D021A1
:101DF000FEF7B6FEBDF80C0040BAE0801FBDFEE75E
:101E0000FEE7000086B05B48FFF784FF5A49DFF821
:101E100070810A7808F1E4091043087001200190EC
:101E2000039056480290002008F52A7A08F28A3B6F
:101E30000090514F0025534C08375E464E494D489F
:101E40000831FFF7B0FF4C494A480831FFF7C6FF99
:101E500044F82550F98828F81510B7F9002049F8FA
:101E600025207A882AF81520B988B34626F8151057
:101E70000A2000F041FA6D1CADB2712DDED3FEF7E1
:101E8000A1FC3D4D2978084328700020049004A946
:101E90006846FEF7F9FB29783B4F08432870374D19
:101EA000354C002637480023294650F826200120CB
:101EB000FEF748FC21782D1D0843207038F81620C5
:101EC000002329460120FEF73DFC21782D1D084303
:101ED000207059F82620002329460120FEF732FC05
:101EE00021782D1D084320703AF81620002329463A
:101EF0000120FEF727FC21782D1D084320703BF8B8
:101F00001620002329460120FEF71CFC21782D1DF8
:101F1000084320700A22002329460120FEF712FC04
:101F20002178761C08432D1D2070B6B2BD42B9D36E
:101F3000FEF7FEFB2178114D08432070FEF742FCAE
:101F400021780843207028786070FEF73BFC2178E8
:101F5000642308432070084906480122491C543074
:101F6000FFF796FC64202D1D00F0C6F9BD42E5D3B5
:101F70005FE70000C80600200000002000500008B5
:101F80005C02002098000020FF57000810B5FEF703
:101F9000D5FF01F0ADFB012803D0BDE8104001F0F2
:101FA000DDB810BD30B58FB028216846FEF7B8F90E
:101FB00014210AA8FEF7B4F901252804CDE9005040
:101FC000002407946846FFF743F908B172B6FEE7AC
:101FD0000F200A90CDE90B540D9400210AA80E940D
:101FE000FFF74AF8002801D072B6FEE70FB030BD07
:101FF000704710B5406A0021C185C184FFF7CDFA52
:1020000010BD0168CA6822F49072CA6001684A690A
:1020100022F001024A61016B012904D10168CA68FA
:1020200022F01002CA60202180F83E1000210163D6
:10203000704708B590F83E10222901D0022008BD53
:1020400082684FF480539A4201D1016921B1816ABB
:102050009A421BD04AB10AE00268816A5268C2F310
:1020600008020A80816A891C08E0026972B102686C
:10207000526802F07F020A70816A491C8162C18D38
:10208000491E0904090CC18503D019E00268526891
:10209000F1E70168CA6822F02002CA600168CA68D4
:1020A00022F48072CA6001684A6922F001024A6122
:1020B000202180F83E10016B012903D0FFF7E6FBD9
:1020C000002008BD002101630168CA6822F01002E7
:1020D000CA6001680A68D20602D50A684968009198
:1020E000818DFFF759FAEBE770B504460068016986
:1020F000E26821F44051114301612169A06808435D
:10210000616908432168CA6841F20C639A4302433B
:10211000CA6020684169A26921F44071114341619C
:102120001E492068884202D1FFF74CF801E0FFF712
:1021300039F800EBC00101EB0012606864218000F7
:10214000B2FBF0F3B3FBF1F36FF018067343B2FB8D
:10215000F0F5B2FBF0F605EB8305322303EB051532
:10216000B5FBF1F5B6FBF1F605F0F00505EB06154C
:10217000B2FBF0F6B2FBF0F0B0FBF1F06FF018023A
:10218000504306EB800003EB0010B0FBF1F0216838
:1021900000F00F002844886070BD00000038014046
:1021A0002DE9F041984617460E460446069D1DE06F
:1021B000681C1BD02DB1FEF709FCA0EB0800A8425B
:1021C00014D92068C16821F4D071C16020684169C8
:1021D00021F001014161202084F83D0084F83E0097
:1021E000002084F83C000320BDE8F08120680068EE
:1021F00036EA000004D00020B842D9D00020F3E72E
:102200000120F9E70148FFF7C9B900001C070020C9
:10221000FEE70907090E002804DB00F1E02080F842
:102220000014704700F00F0000F1E02080F8141D4A
:102230007047000008B5FEF789FEFFF7B3FE264899
:10224000816941F020018161816901F020010091E3
:10225000816941F004018161816901F0040100910B
:10226000816941F00801816180691C4900F0080022
:1022700000901B48002401601A49C0E901144FF482
:102280008041C0E9034144618461C4610462FEF796
:10229000A3FB08B172B6FEE7114813495430016040
:1022A0004FF41651C0E901140C21C460C0E9044187
:1022B0008461C461FFF778FA08B172B6FEE700F0F6
:1022C00035F80A4A00210A4800F06CF809494860CC
:1022D00000F048F8FEE70000001002400054004003
:1022E000C8060020801A0600003801405C3A000849
:1022F000051E00080000002010B5EFF3058149B964
:10230000EFF3108131B908490968022905D1EFF3CB
:10231000118111B16FF0050403E0002408B100F051
:10232000E3FD204610BD000070000020EFF30580A3
:1023300058B9EFF3108040B909490868022801D064
:1023400030B109E0EFF3118030B16FF00500704754
:1023500001200860002070474FF0FF3070470000F8
:102360007000002010B5EFF3058060B9EFF3108026
:1023700048B90B490868022802D0012806D00BE0B2
:10238000EFF3118040B16FF0050010BD022008602E
:1023900000F012FE002010BD4FF0FF3010BD000015
:1023A00070000020F0B585B04FEA01034FF0000443
:1023B000EFF305810394A1BBEFF3108189BB2149A1
:1023C0000968022902D1EFF3118151BB48B380267D
:1023D00018218DF8104004AD42B3176807B13D468F
:1023E00097691FB139467F1E382F02D21779FF0730
:1023F00002D0002005B0F0BD576907B1BE08D2F881
:1024000008C0BCF1000F0DD0D4685C2C18D3126941
:102410003AB137B18DE806103246294601F03DF950
:1024200003900DE0D7685FB912694AB903AACDE9F4
:102430000012B2B2294601F003F9012800D003943A
:102440000398D7E7700000202DE9F041134C0F46A8
:10245000054666692068001D00F016FC681C07D15F
:1024600037B12168BDE8F0410D48091D00F05CBCA2
:1024700020683544B5424560216805D2A068BDE8B2
:10248000F041091D00F038BC6068091D00F034FC03
:10249000206B854200D22563BDE8F081200000203A
:1024A000700C00202DE9F041054600F049FC2D4C50
:1024B0002069401C206120682B4F10B1E06930B3C7
:1024C0002BE025602069012827D1002606EB860035
:1024D00007EB800000F002FC761C382EF6D3234870
:1024E00000F0FCFB2148143000F0F8FB1F482830B6
:1024F00000F0F4FB1D483C3000F0F0FB1B4850306E
:1025000000F0ECFB194860601430A06005E0206822
:10251000E96AC06A884200D82560E06A401CE0622F
:102520006864E86AA169884200D9A06100EB800074
:1025300007EB8000291D00F0F7FB00F021FCE069AB
:1025400000280CD02068E96AC06A884207D208498E
:102550004FF080500860BFF34F8FBFF36F8FBDE81F
:10256000F081000020000020C0070020200C002087
:1025700004ED00E038B500F0E3FB104CA068C8B9EA
:102580000F4800F0ABFB0E48143000F0A7FB0C48DE
:102590002060143060600A4B00202833009003F163
:1025A000500210210A2000F0EFFDA06010B105A13B
:1025B00000F064FCBDE8384000F0E2BB5C000020A5
:1025C000840C0020546D72510000000030B4026C85
:1025D0000B46002A0BD0C1681144C1604468A14277
:1025E00001D30168C16030BC1846FDF74CBE30BC59
:1025F00070472DE9F041856B174604460026026CB2
:1026000082B1C7B1E068FDF73EFEE168206C091AAF
:10261000E1602268914202D26168081AE060022FEC
:1026200016D017E02068A8B9606801F0D9F806460E
:10263000002060600EE0A068FDF725FE216CA06818
:102640000844A0606168884204D32068A06001E06B
:1026500005B16D1E6D1CA5633046BDE8F08110B557
:10266000044690F8590058B101280CD002280FD028
:10267000502080F31188BFF34F8FBFF36F8FFEE7B9
:10268000206B00F091FB2046BDE8104000F08CBBB1
:1026900010BD000010484FF44061420706D0C01D35
:1026A0000D4920F00700411AC1F540610B4A002393
:1026B0000144C2E900030839103A21F00701116012
:1026C0004B600B600B1AC0E9001393604FF00040A1
:1026D0005360D06070470000541400208400002034
:1026E000144E154CA6F29C474FF08058DFF84C90E2
:1026F00012E000BF00F024FBF068C568281D00F060
:10270000C3FA2069401E2061E068401EE06000F0CE
:1027100037FB2846FFF7A3FFE0680028EAD13868B6
:102720000128F9D9C9F80080BFF34F8FBFF36F8F2D
:10273000F2E700005C0C00202000002004ED00E027
:1027400070B51D46049C51B1C4F80020C4E90F01C6
:102750000121204600F04CFD84F84C5070BD2460EF
:10276000F4E72DE9F0470E46DDE909841746824675
:1027700091009946089DA522206BFDF7C9FD6FF0D9
:102780000301206B01EB8701084420F0070778075D
:1027900007D0502080F31188BFF34F8FBFF36F8FA6
:1027A000FEE72218315C82F83410315C11B1401C14
:1027B0001028F6D3002684F84360382D00D337253F
:1027C000E562C4E91356201D00F093FA04F11800E5
:1027D00000F08FFA2461C5F138006462A06166657B
:1027E00084F858604A465146384600F03BFA20606B
:1027F000B8F1000F01D0C8F80040BDE8F087000034
:1028000030B5114900E011460A688242FBD34B689B
:102810005C18844203D14068184448600846436805
:102820001C18944209D1084C103C2468A24209D0DB
:1028300052681A4442600A6812680260814200D0FD
:10284000086030BD0460F9E78400002070B5002402
:1028500041600B4D0061914206D8D11A82699142C4
:1028600006D2011D686807E09A4203D2994201D35B
:10287000012403E0011D286800F03EFA204670BDE7
:102880005C00002010B5044600F05AFAA06B28B195
:102890005FF0000400F074FA204610BD0124F9E74F
:1028A00030B589B0304D55E00498002806DADDE9EE
:1028B0000601059A9047049800284BDB069C606946
:1028C00010B1201D00F0E0F902A800F0B9F80246AE
:1028D00004980A283ED2DFE800F00505053D2637BA
:1028E00005053D260598A169034601442046FFF7EA
:1028F000ADFF00B3616A20468847E069012829D10D
:10290000002000900598A16900234218194620462E
:1029100001F070F878B9502080F31188BFF34F8F21
:10292000BFF36F8FFEE70598A06128B181181346A9
:102930002046FFF78BFF0DE0502080F31188BFF396
:102940004F8FBFF36F8FFEE794F82C0010B920462D
:1029500000F02AFA002204A9A86800F09BFD0028D4
:10296000A2D109B030BD00005C0000202DE9FC417F
:102970000F46054600F064FB01A800F061F804462C
:10298000019818B100F0A4FFBDE8FC81224EAFB160
:1029900070680068A8B30027291B3A46B06800F0A9
:1029A00081FA00F095FF0028EED11C494FF08050CD
:1029B0000860BFF34F8FBFF36F8FE5E7A542EBD8F9
:1029C00000F086FF30682746C068C468201D00F00C
:1029D0005BF9E069012810D1A0692B4641193A46FC
:1029E0002046FFF733FF40B1002003460146009028
:1029F0002A46204600F0FEFF20B1616A2046884743
:102A0000C2E707E0502080F31188BFF34F8FBFF378
:102A10006F8FFEE70127BFE75C00002004ED00E0B8
:102A200006484168096829B14168C968C9684968A8
:102A3000016370474FF0FF31FAE7000020000020EB
:102A400070B5054600F062FE064E044630698442C9
:102A500003D200F009F8012000E0002028602046A1
:102A6000346170BD5C000020F8B5194D1FE0C068EE
:102A7000C4680668201D00F007F9616A204688478F
:102A8000E069012813D1A0693044B04206D924611D
:102A90006060211D286800F02FF908E0002003463F
:102AA000014600903246204600F0A4FF38B1286865
:102AB00001680029DBD16968C5E90010F8BD502024
:102AC00080F31188BFF34F8FBFF36F8FFEE70000D5
:102AD0005C00002008484068401C4FF0500080F324
:102AE000118804D0BFF34F8FBFF36F8FFEE7BFF3A2
:102AF0004F8FBFF36F8FFEE78C000020074C2068DC
:102B0000016841B1C0680021D0F80000FFF72EFF36
:102B1000FFF7C6FEF3E701210020F7E75C00002085
:102B20002DE9F041044600F00BF994F9455004F109
:102B3000240609E0606A48B1304600F091FE08B111
:102B400000F000FA6D1E6DB2002DF3DC4FF0FF3681
:102B500084F8456000F014F900F0F2F894F944505C
:102B600004F1100709E0206948B1384600F078FE0A
:102B700008B100F0E7F96D1E6DB2002DF3DC84F8AA
:102B80004460BDE8F04100F0FBB800002DE9F041E1
:102B90000546002700F054FA314E306808B9FFF7B7
:102BA00079FDF06805424BD1C5B3083568070ED0F2
:102BB00005F00700C0F108000544680707D0502061
:102BC00080F31188BFF34F8FBFF36F8FFEE72DB3F4
:102BD0007068854234D82248103001460C6801E004
:102BE00020460C466168A94202D221680029F7D12B
:102BF00031688C4224D0076821680160606808371A
:102C0000411B10290FD96019420708D0502080F3CA
:102C10001188BFF34F8FBFF36F8FFEE710E0416065
:102C20006560FFF7EDFD61687068401A7060B2681A
:102C3000904200D2B060F06801430020C4E9000176
:102C400000F046FE780707D0502080F31188BFF3CC
:102C50004F8FBFF36F8FFEE73846BDE8F08100006D
:102C60007400002010B5031F4FF080741C601B1F00
:102C700021F001011960191F024B0B601439403813
:102C80000A6010BDD52A0008D0E9013201699A60B6
:102C9000D0E901235A604A68824201D182684A60C1
:102CA000002202610868401E086008687047000042
:102CB000034B036003F15C000860802010607047E4
:102CC0009C0D0020044B036003F15C0008604FF48E
:102CD0008070106070470000F80F002000F10801BC
:102CE0004FF0FF32C0E90112C160016100210160B3
:102CF000704700210161704730B50B685A1C02D043
:102D000000F1080202E0026904E0224654682568E6
:102D10009D42FAD953684B6099608A60516008619E
:102D20000168491C016030BD42684A6093688B604D
:102D300093685960916008610168491C016070479F
:102D4000502080F31188BFF34F8FBFF36F8F0A4974
:102D50004868401C486001280CD10848006810F001
:102D6000FF0F07D0502080F31188BFF34F8FBFF3C0
:102D70006F8FFEE7704700008C00002004ED00E03C
:102D80000849486828B1401E486001D180F3118885
:102D90007047502080F31188BFF34F8FBFF36F8FC0
:102DA000FEE700008C00002070B5002827D0144DED
:102DB000A0F108046168E868014207D1502080F35F
:102DC0001188BFF34F8FBFF36F8FFEE722683AB1D0
:102DD000502080F31188BFF34F8FBFF36F8FFEE752
:102DE0008143616000F02CF960686968084468609C
:102DF0002046FFF705FDBDE8704000F069BD70BDDD
:102E0000740000204FF0E02000210161816105493C
:102E10004FF47A720968B1FBF2F1491E4161072152
:102E2000016170471C00002010B5FDF7F5F911494C
:102E300010280ED300F1E02090F8F0030A789042B9
:102E400007D2502080F31188BFF34F8FBFF36F8FED
:102E5000FEE709480068896800F4E060884207D905
:102E6000502080F31188BFF34F8FBFF36F8FFEE7C1
:102E700010BD00008C0000200CED00E010B5084BE8
:102E8000002200BF53F832401CB1521C082AF9D36B
:102E900010BD43F8321003EBC201486010BD0000C2
:102EA0008007002070B515460E460446FFF748FF20
:102EB00094F944100020491C01D184F8440094F98D
:102EC0004510491C01D184F84500FFF759FFA06B5C
:102ED00028B92A46314604F1240000F051F8204672
:102EE000BDE87040FFF71CBE10B5020014D00F48BB
:102EF000806B38B1502080F31188BFF34F8FBFF340
:102F00006F8FFEE700F09CF800211046FFF79CFA57
:102F100000F0DEFC002807D105494FF08050086022
:102F2000BFF34F8FBFF36F8F10BD00002000002054
:102F300004ED00E002498A6A026049694160704715
:102F40002000002001490120486270472000002035
:102F500010B50C4650B1094909681831FFF7CCFE8D
:102F60002046BDE810400121FFF76EBA502080F3E3
:102F70001188BFF34F8FBFF36F8FFEE72000002053
:102F800070B514460D4668B10A4909681831FFF753
:102F9000CBFE0CB14FF0FF3521462846BDE870400E
:102FA000FFF752BA502080F31188BFF34F8FBFF361
:102FB0006F8FFEE72000002030B587B00024039417
:102FC00005AA04A903A80494FFF772FEDDE9030132
:102FD0000094CDE90110002315A11748059A00F0CF
:102FE0005CFB164D002868631FD000F0D3FC01285D
:102FF00009D0401C19D1502080F31188BFF34F8FA6
:10300000BFF36F8FFEE7502080F31188BFF34F8F1F
:10301000BFF36F8F4FF0FF3028630120E8616C61D0
:1030200007B0BDE8304000F045B807B030BD000043
:1030300049444C4500000000E12600082000002023
:103040000248816B491C816370470000200000200A
:10305000164810B5816B11B10121416210BD0021EC
:1030600041628169124A01E0B9B1491E01EB810355
:1030700052F82330002BF7D001EB810302EB8302DF
:1030800002F1080453685B685360A34201D15B6896
:103090005360DA680260816110BD502080F31188AE
:1030A000BFF34F8FBFF36F8FFEE7000020000020BB
:1030B000C00700201CB5264908780190FF20087041
:1030C00008788DF800009DF800009DF8002000F0C1
:1030D000F000904207D0502080F31188BFF34F8F4B
:1030E000BFF36F8FFEE79DF800001A4B00F0500011
:1030F00018700720986005E09DF8002052008DF8B8
:103100000020401E9DF800201206F5D49860032888
:1031100007D0502080F31188BFF34F8FBFF36F8F1C
:10312000FEE74FF440709860019808700A48016803
:1031300041F470010160016841F070410160FFF7E6
:1031400061FE00205860FDF731F800201CBD000032
:1031500000E400E08C00002020ED00E010B55020DD
:1031600080F31188BFF34F8FBFF36F8F00F0D4FA55
:1031700018B104494FF080500860002080F3118896
:1031800010BD000004ED00E038B5049D18B153B146
:10319000CAB181B120E0502080F31188BFF34F8F76
:1031A000BFF36F8FFEE7502080F31188BFF34F8F7E
:1031B000BFF36F8FFEE7502080F31188BFF34F8F6E
:1031C000BFF36F8FFEE739B1502080F31188BFF352
:1031D0004F8FBFF36F8FFEE750241C46012384F806
:1031E00046302B460094FFF7ABFA204638BD00006E
:1031F00070B50D46040025D0FFF7A2FDD4E90F20DD
:10320000216802FB001161600021A1632168A160B7
:103210000A46D4E90F01401E00FB0121E16021466E
:103220004FF0FF3001F8440F487004F110008DB1E9
:10323000FFF754FD04F12400FFF750FDFFF7A0FD58
:10324000012070BD502080F31188BFF34F8FBFF372
:103250006F8FFEE721690029F0D000F001FB002804
:10326000ECD004494FF080500860BFF34F8FBFF39C
:103270006F8FE3E704ED00E02DE9FF4782B01D46C4
:103280008A464FF00008040003D0BAF1000F08D0BE
:1032900011E0502080F31188BFF34F8FBFF36F8F81
:1032A000FEE7206C38B1502080F31188BFF34F8FB8
:1032B000BFF36F8FFEE7022D0AD1E06B012807D024
:1032C000502080F31188BFF34F8FBFF36F8FFEE75D
:1032D00000F00EFA3F4F4FF000094FF0805648B90A
:1032E000049838B1502080F31188BFF34F8FBFF39B
:1032F0006F8FFEE7FFF724FDA06BE16B884207D3D9
:10330000022D05D00498D0B1B8F1000F1AD01EE0FC
:103310002A4651462046FFF76CF9616A19B104F15B
:10332000240000F09DFA20B13E60BFF34F8FBFF341
:103330006F8FFFF725FD012006B0BDE8F087FFF78E
:103340001FFD22E06846FFF7F5FD4FF00108FFF78B
:1033500017FDFFF775FEFFF7F3FC94F94400401CDE
:1033600001D184F8449094F94500401C01D184F8BF
:103370004590FFF705FD04A9684600F027F930B134
:103380002046FFF7CDFB00F0A3FA0020D4E7FFF7BB
:10339000D7FCA06BE16B884213D1FFF7F1FC04F17D
:1033A00010000499FFF7D4FD2046FFF7B9FB00F0A9
:1033B0008FFA00289ED13E60BFF34F8FBFF36F8F0F
:1033C00098E7FFF7DDFC2046FFF7AAFB00F080FA44
:1033D00090E7000004ED00E02DE9F0471F4690461D
:1033E0008946040003D0B9F1000F08D011E0502045
:1033F00080F31188BFF34F8FBFF36F8FFEE7206C10
:1034000038B1502080F31188BFF34F8FBFF36F8F17
:10341000FEE7022F0AD1E06B012807D0502080F38D
:103420001188BFF34F8FBFF36F8FFEE7FFF7FCFCF0
:103430005020EFF3118680F31188BFF34F8FBFF355
:103440006F8FA06BE16B884206D3022F04D000205F
:1034500086F31188BDE8F08794F945503A4649460D
:103460002046FFF7C6F8681C04D06D1C84F8455050
:103470000120EDE7606A0028FAD004F1240000F092
:10348000EFF90028F4D0B8F1000FF1D00121C8F80D
:103490000010EDE72DE9F747002683B08A460400C7
:1034A00003D0BAF1000F08D011E0502080F311884A
:1034B000BFF34F8FBFF36F8FFEE7206C38B1502002
:1034C00080F31188BFF34F8FBFF36F8FFEE700F0DB
:1034D0000FF9DFF8F4804FF000094FF0805748B93A
:1034E000059838B1502080F31188BFF34F8FBFF398
:1034F0006F8FFEE7FFF724FCA56BC5B15146204650
:10350000FFF764F86D1EA563206950B104F1100047
:1035100000F0A6F928B1C8F80070BFF34F8FBFF3D1
:103520006F8FFFF72DFC012006B0BDE8F0870598EE
:1035300008B11EB106E0FFF723FC27E06846FFF75D
:10354000F9FC0126FFF71CFCFFF77AFDFFF7F8FBFB
:1035500094F94400401C01D184F8449094F945004A
:10356000401C01D184F84590FFF70AFC05A9684684
:1035700000F02CF8002820460AD0FFF7D1FA00F01E
:10358000A7F92046FFF77EF90028B3D00020CBE74B
:10359000FFF778F990B104F124000599FFF7D8FC02
:1035A0002046FFF7BDFA00F093F90028A2D1C8F831
:1035B0000070BFF34F8FBFF36F8F9BE72046FFF77D
:1035C000AFFA00F085F995E704ED00E02DE9F04150
:1035D0000C46050011D0C4B1FFF7B2FB174B5A6976
:1035E0006E682068911B471C17D02F689B6A9F420A
:1035F00019D0964217D8012410E0502080F311888A
:10360000BFF34F8FBFF36F8FFEE7502080F3118819
:10361000BFF34F8FBFF36F8FFEE70024FFF7B0FBC0
:103620002046BDE8F081884205D9401A206028462E
:10363000FFF780FCF1E700202060DCE7200000209D
:103640002DE9FF5F8346DDE90E87994616468A46D7
:103650009000FFF79BFA05001CD05C20FFF796FA5C
:10366000040014D00020256384F85900CDE90240FD
:10367000CDE900874B46324651465846FFF771F870
:103680002046FEF70FFF012004B0BDE8F09F28465A
:10369000FFF78AFB4FF0FF30F6E7F0B585B0DDE9C4
:1036A0000B640A9DA6B1DCB15C2700972663022655
:1036B00084F85960002604AFCDE90246CDE90057F1
:1036C000FFF74FF82046FEF7EDFE049805B0F0BD79
:1036D000502080F31188BFF34F8FBFF36F8FFEE749
:1036E000502080F31188BFF34F8FBFF36F8FFEE739
:1036F0000548C16919B1806B18B1002070470120DD
:1037000070470220704700002000002001484069F7
:1037100070470000200000202DE9F0412E4C0027CA
:10372000A06B40B1206A401C2062606A00B1012792
:103730003846BDE8F0816669761C666113D1606821
:10374000006838B1502080F31188BFF34F8FBFF36A
:103750006F8FFEE76068A1686160A060A06A401C8E
:10376000A062FFF75DF9206BDFF87080864209D315
:103770006068006880B16068C068C5686868864233
:103780000DD220632068C06A00EB800158F8210048
:103790000128CAD90127C8E74FF0FF30F1E7281DFB
:1037A000FFF772FAA86A18B105F11800FFF76CFA72
:1037B000E86AA169884200D9A06100EB800108EBAA
:1037C0008100291DFFF7B0FAE86A2168C96A8842BA
:1037D000CED30127CCE7000020000020C007002046
:1037E00070B504004FF0000133D01B4D28688442AF
:1037F00007D0502080F31188BFF34F8FBFF36F8F36
:10380000FEE7206D38B1401E2065E36CE26A9A4203
:103810001FD040B11DE0502080F31188BFF34F8FBF
:10382000BFF36F8FFEE7201DFFF72EFAE06CE0621A
:10383000C0F13800A061E06AA969884200D9A86196
:10384000064900EB800001EB8000211DFFF76CFAB8
:103850000121084670BD000020000020C0070020A4
:1038600070B5C068C46854B104F118000646FFF78B
:103870000BFA144DA86B50B13146134815E0502097
:1038800080F31188BFF34F8FBFF36F8FFEE7201DCA
:10389000FFF7FAF9E06AA969884200D9A8610B49E3
:1038A00000EB800001EB8000211DFFF73DFAE06A8C
:1038B0002968C96A884202D90120686270BD002067
:1038C00070BD000020000020480C0020C007002030
:1038D0002DE9F0472C4D00242746A86B38B1FFF79F
:1038E0002FFAA86B401EA863A86B40B146E0502099
:1038F00080F31188BFF34F8FBFF36F8FFEE7296905
:10390000224E0120D1B3A6F5916980463068E0B11E
:10391000F068C46804F11800FFF7B6F9201DFFF73E
:10392000B3F9E06AA969884200D9A86100EB800177
:1039300009EB8100211DFFF7F7F9E06A2968C96AE0
:103940008842E3D3C5F82480E0E70CB1FFF768F8BC
:103950002C6A4CB14FEA0806FFF7DEFE00B16E623A
:10396000641EF9D100202862686A38B1084901272D
:1039700038070860BFF34F8FBFF36F8FFFF700FA70
:103980003846BDE8F087000020000020480C0020E9
:1039900004ED00E010B586B0FEF7ECFD114CA06818
:1039A000B8B100200390049005AA04A903A8FFF76A
:1039B00089F9DDE9032102208DE8070000230AA12F
:1039C0000B48059AFFF769FEE06010B106B00120D0
:1039D00010BD502080F31188BFF34F8FBFF36F8F5E
:1039E000FEE700005C000020546D722053766300F7
:1039F000FD2A00082DE9FF411E46134602000A9DDC
:103A00004FF0000016D0144CA768002F0FD0CDE95E
:103A100000130292062917DAFFF76AFE02284FF018
:103A200000030FD000226946A068FFF725FC04B010
:103A3000BDE8F081502080F31188BFF34F8FBFF3B2
:103A40006F8FFEE72A46EEE7002332466946384686
:103A5000FFF7C2FCEBE700005C000020983A00088A
:103A60000000000000000000000000000000000056
:103A7000000200001800000000000000000000002C
:103A8000000000000000000001020304060708090E
:103A9000000000000102030464656661756C7454E3
:103AA00061736B00C43A0008000000209800000019
:103AB000280100085C3B0008980000202026000038
:103AC00044010008000000000000000000000000A9
:103AD00000000000010000001000000000000000D5
:103AE0000024F400000000000000000000000000BE
:103AF00000000000000000000000000000000000C6
:103B000000000000000000000000000000000000B5
:103B100000000000000000000000000000000000A5
:103B20000000000000000000000000000000000095
:103B30000000000000000000000000000000000085
:103B40000000000000000000000000000000000075
:0C3B500000000000AAAAAAAA00000000C1
:04000005080000ED02
:00000001FF
