:020000040800F2
:100000002007002089010008BF1400081D10000807
:10001000BD1400088F02000817150008000000003A
:10002000000000000000000000000000C3140008F1
:100030009102000800000000C1140008C514000867
:10004000A3010008A3010008A3010008A301000800
:10005000A3010008A3010008A3010008A3010008F0
:10006000A3010008A3010008A3010008A3010008E0
:10007000A3010008A3010008A3010008A3010008D0
:10008000A3010008A3010008A3010008A3010008C0
:10009000A3010008A3010008A3010008A3010008B0
:1000A000A3010008A3010008A3010008A3010008A0
:1000B000A3010008A3010008A3010008A301000890
:1000C000A3010008A3010008A3010008A301000880
:1000D000A3010008A3010008A3010008A301000870
:1000E000A3010008A3010008A301000800F002F822
:1000F00000F03AF80AA090E8000C82448344AAF188
:100100000107DA4501D100F02FF8AFF2090EBAE885
:100110000F0013F0010F18BFFB1A43F0010318473B
:10012000C0180000E0180000103A24BF78C878C159
:10013000FAD8520724BF30C830C144BF04680C60ED
:10014000704700000023002400250026103A28BF35
:1001500078C1FBD8520728BF30C148BF0B60704739
:100160001FB51FBD10B510BD00F05CF81146FFF7BC
:10017000F7FF01F0E1F900F07AF803B4FFF7F2FFBE
:1001800003BC00F07DF8000009488047094800479B
:10019000FEE7FEE7FEE7FEE7FEE7FEE7FEE7FEE737
:1001A000FEE7FEE704480549054A064B7047000094
:1001B00015150008ED000008200100202007002090
:1001C00020030020200300204FF0000200B513465A
:1001D00094469646203922BFA0E80C50A0E80C5067
:1001E000B1F12001BFF4F7AF090728BFA0E80C5018
:1001F00048BF0CC05DF804EB890028BF40F8042B11
:1002000008BF704748BF20F8022B11F0804F18BF7D
:1002100000F8012B704770477047704700487047DF
:10022000C00000207546FFF7F9FFAE46050069469D
:10023000534620F00700854618B020B5FFF7B2FFFF
:10024000BDE820404FF000064FF000074FF00008D7
:100250004FF0000B21F00701AC46ACE8C009ACE858
:10026000C009ACE8C009ACE8C0098D46704710B5BC
:100270000446AFF300802046BDE81040FFF77DBF85
:1002800001491820ABBEFEE7260002007047FEE7DA
:100290007047000070B5044600F0FEF80546601C8B
:1002A00002D004480078044400F0F6F8401BA04255
:1002B000FAD370BD000000202DE9F84FDFF8B891A7
:1002C000002409F1040A0AF1040B23460F270BF15D
:1002D000040EC9E00125A5402A40AA427DD1674EFF
:1002E000D1F804C0ACEB0608B44532D014DCBCF144
:1002F000030F3AD009DCBCF1000F2AD0BCF1010F8A
:100300001CD0BCF1020F31D11DE0BCF1110F17D090
:10031000BCF1120F2AD119E0B8F5881F19D006DCFC
:10032000B8F5803F15D0B8F5801F1FD111E0B8F5A2
:10033000001F0ED0B8F5041F18D10AE0CB6815E0F5
:10034000CB681B1D12E0CB6808330FE0CB680C3381
:100350000CE08B682BB1012B4FF0080303D04561F3
:1003600004E0042302E0056100E00023FF2A01D835
:10037000064601E000F104064FEA840501D9A5F123
:100380002005D6F8008007FA05FC28EA0C0803FAD5
:1003900005F548EA0508C6F800804D68ED0062D50D
:1003A000374DAE6946F00106AE61AD6924F0030633
:1003B00005F001050095334D06EB050CDCF80850FF
:1003C000A607360F07FA06F825EA0805DFF8B88011
:1003D000404503D14FF0000817E044E0DFF8AC805F
:1003E000404502D14FF001080FE0DFF8A4804045FE
:1003F00002D14FF0020808E0DFF89880404502D1B2
:100400004FF0030801E04FF0040808FA06F848EA44
:100410000508CCF808804D68D9F80060ED034D461A
:1004200001D5164300E096432E604D68DAF800606F
:10043000AD03554601D5164300E096432E604D6846
:10044000DBF80060ED025D4601D5164300E09643FF
:100450002E604D68DEF80060AD02754601D516438A
:1004600000E096432E60641C0D682A46E5407FF448
:1004700031AFBDE8F88F000000040140000011100A
:10048000001002400000014000080140000C014043
:1004900000100140001401400148806870470000CE
:1004A0000000002070B5040025D094F83D00002520
:1004B00020B984F83C50204600F078FA242084F8D3
:1004C0003D002068016821F0010101602068016899
:1004D00041F4004101602068016821F4004101609D
:1004E00000F0B2FB4D4A6168914201D84C4900E0EE
:1004F0004C49884201D2012070BD4B492368B0FBB2
:10050000F1F15E6826F03F060E435E606368934239
:1005100006D94FF4967359434FF47A73B1FBF3F154
:100520002368491C1E6A26F03F0631431962616840
:10053000914210D84900401EB0FBF1F2521CC2F3A8
:100540000B02042A01D2042022E0B0FBF1F0401C8F
:10055000C0F30B001CE0A268F2B301EBC10303EB94
:100560000116431EB3FBF6F35B1C43F480431B05EB
:1005700049D092B301EBC10202EB0111401EB0FB66
:10058000F1F0401CC0F30B0040F4804040F4004008
:100590002168CA694CF6FF739A431043C861D4E9D5
:1005A000071001432068026822F0C0021143016075
:1005B000D4E9030101432068826848F2FF339A437B
:1005C00011438160D4E9050108432168CA6822F01B
:1005D000FF021043C86001E00EE016E020680168E9
:1005E00041F0010101602564202084F83D0025636D
:1005F00084F83E50002070BD01EB4106431EB3FB62
:10060000F6F35B1CB3E70120C2E701EB4101401E9A
:10061000B0FBF1F0401CC0F30B00B7E7A08601006F
:1006200080841E0000093D0040420F002DE9FF4F6D
:1006300083B00025DDE910799A4693460446DDF83B
:1006400048800095FFF728FF064694F83D002028D3
:100650007CD11923012285492046009600F0EEFD49
:100660000028F5D194F83C0001286FD0012084F8CF
:100670003C0020680168C90703D1016841F001010D
:1006800001602068016821F400610160222084F883
:100690003D00402084F83E0025646762A4F82A905B
:1006A000608D20857248E062CDE9008653465A4647
:1006B0002046049900F0CAFC00287DD1208DDFF887
:1006C000B491202768B1012814D00228206801685D
:1006D0001ED041F48061016020684169806900900A
:1006E000B6E02068416981690091016841F40071B8
:1006F0000160ADE02068016821F48061016072B69C
:100700002068416981690091016841F400710AE043
:1007100041F40061016072B620684169816900910D
:10072000016821F48061016062B691E0032868D815
:1007300001280CD0022843464FF0000249462046CB
:1007400000960FD000F07AFDB0BB10E08BE032468F
:100750004146204600F0F1FD70BB20680069616AE7
:1007600008706CE000F06AFD30BB72B634E02068BF
:10077000016821F48061016072B620680069616AD5
:100780000870606A401C6062208D401E2085608D6C
:10079000401E6085384846F2A8110068B0FBF1F0B1
:1007A000C0EBC00000EB80000090401E009008D01D
:1007B00020684069C04300E029E040070CD500985C
:1007C000F3E744F8305F6773A573206940F02000B9
:1007D000206162B625731AE02068016841F4007157
:1007E000016020680069616A0870606A401C60628C
:1007F000218D491E2185618D491E618562B6216862
:100800001BE032464146204600F097FD18B101201A
:1008100007B0BDE8F08F20680069616A0870606AFF
:10082000401C6062218D491E2185618D491E6185B4
:1008300021684A69D24352070AD409690170606A83
:10084000401C6062208D401E2085608D401E6085AA
:10085000208D00287FF46AAF84F83D7084F83E5004
:1008600084F83C50D4E70220D2E7000002001000D8
:100870000000FFFF040001000C0000202DE9FF4FE5
:1008800083B09A46DDE9119793460446DDF840802F
:10089000FFF702FE054694F83D0020287FD119237A
:1008A000012240492046009500F0C8FC002876D17E
:1008B00094F83C00012872D0012084F83C002068A4
:1008C0000168C90703D1016841F001010160206896
:1008D000016821F400610160212084F83D0040207E
:1008E00084F83E0000262664C4F82480A4F82A90E8
:1008F000608D20852C48E062CDE9007553465A464C
:100900002046049900F020FC70B930E02A463946B0
:10091000204600F045FD58B1206C042804D1206821
:10092000016841F400710160012007B0BDE8F08F5B
:10093000606A216800780861606A401C6062218DED
:10094000491E89B22185628D521E628522685369D3
:10095000DB435B070BD469B100781061606A401C0F
:100960006062208D401E2085608D401E6085208D38
:100970000028CBD12A463946204600F039FC002811
:10098000CAD154F83D0B016841F400710160202088
:1009900004F81E09E67766770020C6E7FFE7022025
:1009A000C3E70000020010000000FFFF10B586B092
:1009B0000021009101910291039100680F49884242
:1009C0001AD10F4CA06940F00800A061A0696946E7
:1009D00000F008000490C020009012200190032035
:1009E00003900848FFF768FCE06940F40010E061FC
:1009F000E06900F40010049006B010BD00540040FF
:100A000000100240000C0140024881680278114445
:100A10008160704700000020074810B5016841F070
:100A200010010160032000F067F80F2000F006F8C5
:100A300000F024F8002010BD0020024070B50D4DDC
:100A400004464FF47A712878B1FBF0F00A4909683E
:100A5000B1FBF0F000F0CEFA48B9102C07D200221A
:100A60002146501E00F028F800206C6070BD012067
:100A700070BD0000000000200C0000200C4808B5EC
:100A8000816941F001018161816901F001010091F9
:100A9000C16941F08051C161C06900F0805000908F
:100AA0000448416821F0E06141F00071416008BDF7
:100AB0000010024000000140F0B40E4B1B680C46D1
:100AC000C3F30223C3F10705042D00D90425191D22
:100AD000072901D2002300E0DB1E012606FA05F1FA
:100AE000491E214099409E40761E16403143F0BC7D
:100AF00000F012BD0CED00E0064900F007020868A6
:100B00004FF6FF03184040EA0220034A10430860F2
:100B1000704700000CED00E00000FA052DE9F047F9
:100B20000F46050061D0434E306800F00700B84220
:100B300009D2306820F0070038433060306800F098
:100B40000700B84251D128683B4C810712D54007B5
:100B500003D5606840F4E06060602878000703D542
:100B6000606840F4605060606068A96820F0F00040
:100B7000084360602878C00728D06868012810D032
:100B80002168022810D0890700292EDA616821F037
:100B9000030101436160FFF77FFC804641F2883921
:100BA0000DE021688903EFE78901EDE7FFF774FCA9
:100BB000A0EB0801494502D90320BDE8F087606831
:100BC000696800F00C00B0EB810FEFD1306800F0E5
:100BD0000700B8420BD9306820F007003843306076
:100BE000306800F00700B84201D00120E5E728781E
:100BF000400705D56068E96820F4E060084360605C
:100C00002878000706D56068296920F4605040EA1A
:100C1000C100606000F028F86168084AC1F3031160
:100C2000515CC8400649086006480068FFF706FFA7
:100C30000020C2E70020024000100240C619000850
:100C40000C000020040000200448054900684968A1
:100C5000044AC1F30221515CC84070470C000020D7
:100C600000100240D619000812A185B00FC98DE806
:100C70000F0014A0144A006804905168134801F052
:100C80000C03042B10D0082B0ED1C1F38343C903EE
:100C90001DF803000AD5516804AAC1F34041515C14
:100CA0000A4A5043B0FBF1F005B070470849484389
:100CB000FAE7000002030405060708090A0B0C0DF9
:100CC0000E0F1010010200000010024000127A0006
:100CD00000093D002DE9F84F040070D02078C04D88
:100CE000C00749D06868C0F38100012807D0686850
:100CF000C0F38100022809D16868C00306D52868BE
:100D0000800339D560680028E7D035E06068B0F529
:100D1000803F0BD010B1B0F5A02F11D0286820F47F
:100D200080302860286820F4802002E0286840F4A1
:100D300080302860606890B1FFF7AEFB06460AE09D
:100D4000286840F480202860F0E700BFFFF7A4FB8C
:100D5000801B642873D828688003F7D50CE0FFF760
:100D60009BFB064605E000BFFFF796FB801B64284F
:100D7000F0D828688003F7D420789A4E80074FF087
:100D800001094FF0000839D5686810F00C0F07D042
:100D90006868C0F38100022809D16868C00306D4DE
:100DA0002868800714D52069012808D110E020693F
:100DB000B0B1C6F80090FFF76FFB074605E00AE107
:100DC000FFF76AFBC01B0228C4D828688007F7D544
:100DD0002868616920F0F80040EAC10028600DE051
:100DE000C6F80080FFF758FB074604E0FFF754FB06
:100DF000C01B022823D828688007F7D42078000772
:100E00002CD57948A169D9B1C0F80090FFF744FB0F
:100E1000074604E0FFF740FBC01B02280FD8686AB2
:100E20008007F7D571484FF4FA510068B0FBF1F034
:100E3000009000BF0098411E0091FAD20EE080E0C1
:100E4000C0F80080FFF728FB074604E0FFF724FB0B
:100E5000C01B022875D8686A8007F7D4207840073D
:100E600060D5E8690027C00008D4E86940F08050E8
:100E7000E861E869012700F0805000905C48016853
:100E8000C90513D40168834641F480710160FFF7FE
:100E900003FB824606E000BFFFF7FEFAA0EB0A0064
:100EA00064284ED8DBF80000C005F5D5E0680128BD
:100EB0000AD008B1052813D0286A20F00100286262
:100EC000286A20F0040002E0286A40F0010028624D
:100ED000E06841F2883B98B1FFF7DEFA82460BE00A
:100EE000286A40F004002862EEE700BFFFF7D4FA5A
:100EF000A0EB0A0159455AD8286A8007F6D50CE0BC
:100F0000FFF7CAFA824605E0FFF7C6FAA0EB0A012E
:100F100059454CD8286A8007F6D41FB1E86920F0FB
:100F20008050E861E06988B36968C1F381010229F2
:100F300044D00228C6F8608004D0FFF7ADFA04461A
:100F400038E034E0FFF7A8FA074604E0FFF7A4FA18
:100F5000C01B02282BD828688001F7D4206AB0F57E
:100F6000803F05D16868A16820F4003008436860BC
:100F7000D4E908010843696821F4741108436860E2
:100F8000C6F86090FFF788FA044606E025E000BF47
:100F9000FFF782FA001B022809D828688001F7D5DC
:100FA0001BE000BFFFF778FA001B022802D90320DC
:100FB000BDE8F88F28688001F4D40EE00128F7D04E
:100FC0006868226A00F48031914204D1616A00F4B9
:100FD0007010884201D00120EAE70020E8E7000015
:100FE0000010024000004242800442420C000020F7
:100FF0000070004010B5401EB0F1807F01D3012089
:1010000010BD4FF0E02460610F21601700F084FAFA
:101010000020A06107202061002010BDFEE70168CC
:101020004A69D24352050FD46FF480624A610021AD
:1010300040F8301F202242738173026942F004029B
:101040000261017301207047002070472DE9F84FBD
:101050000446006889460B9D01689846174641F48E
:10106000806101602068016841F480710160009531
:101070004FF0011B0022594620460A9B00F0DEF883
:101080004FF4007A40B120680068C00501D5C4F86B
:1010900040A00320BDE8F88F216809F0FE00086138
:1010A0002B46284920460A9A00F0FCF8F0BB20683D
:1010B0004169806900902A4620460A9900F070F93B
:1010C00040B1206C04283AD12068016841F40071D5
:1010D000016034E0FEB2B8F1010F09D02168380A8E
:1010E00008612A4620460A9900F05AF90028E8D1FA
:1010F000206806612A4620460A9900F051F9002826
:10110000DFD12068016841F4807101600095002200
:10111000594620460A9B00F091F80028B3D1216877
:1011200009F0FF0040F00100086100E007E02B46F5
:10113000044920460A9A00F0B5F80028AAD00120F8
:10114000A8E70000020001002DE9F843044600680A
:101150000D46DDE9089701689846164641F480710E
:1011600001604B4600224FF001112046009700F02D
:1011700065F848B120680068C00502D54FF40070DA
:1011800020640320BDE8F883216805F0FE000861B3
:101190003B464A461549204600F084F888B9206845
:1011A0004169806900903A464946204600F0F8F8C7
:1011B00048B1206C042804D12068016841F4007112
:1011C00001600120DEE7F5B2B8F1010F09D0216816
:1011D000300A08613A464946204600F0E1F8002806
:1011E000E7D1206805610020CCE700000200010083
:1011F00070B516460D4604460DE02046FFF70FFF7A
:1012000008B1012070BD681C05D0FFF745F9801BAF
:10121000A84207D835B120684069C0434007ECD4E4
:10122000002070BD002044F8300F20216173A073AE
:10123000216941F0200121612073E2E72DE9F047A7
:101240001E4690460D460446C1F30747DDF8209040
:1012500008E0701C06D0FFF71FF9A0EB0900B042B0
:101260000FD876B12068012F18D0806925EA0000D8
:101270000004000C14D000214145EAD00020BDE854
:10128000F087002044F8300F20216173A07321699A
:1012900041F02001216120730120F0E74069E5E77A
:1012A0000121E9E72DE9F0479A4691460E460446AA
:1012B00000254FF02008C1F3074725E0206840696A
:1012C000C043400514D42068016841F400710160F6
:1012D00021686FF480604861256384F83D8084F85C
:1012E0003E50206C40F00400206484F83C501FE025
:1012F000B9F1FF3F08D0FFF7CFF8A0EB0A0149454D
:101300000CD8B9F1000F09D02068012F13D08069E3
:1013100026EA00000004000C0BD0CFE744F8305F51
:1013200084F80D80A573206940F0200020612573AA
:101330000120BDE8F0874069EAE72DE9F04100258A
:1013400090460E460446202717E04069C043C00679
:101350000CD454F8301B6FF01000486144F8105959
:101360006777A577206A2062257717E0FFF794F862
:10137000A0EB0800B04208D83EB120684169C943DB
:101380004906E2D40020BDE8F08144F8305F67737D
:10139000A573206940F02000206125730120F2E749
:1013A00070B516460D4604460DE02046FFF737FEA1
:1013B00008B1012070BD681C05D0FFF76DF8801BD7
:1013C000A84207D835B120684069C0430006ECD474
:1013D000002070BD002044F8300F20216173A073FD
:1013E000216941F0200121612073E2E72DE9F041FC
:1013F00086B08046012504A8CDE9000564242B466B
:101400007522D02102944046FFF710F99DF8100094
:10141000682803D0012006B0BDE8F081002703AEA4
:101420008DF80C700096CDE9015401236B22D02178
:101430004046FFF723FA07208DF80C000096CDE90F
:10144000015401231922D0214046FFF717FA8DF8E5
:101450000C700096CDE9015401231C22D021404696
:10146000FFF70CFA8DF80C700096CDE901540123BA
:101470001B22D0214046FFF701FA0020CBE70000F5
:101480001FB50C466423022203A98DE80E00012338
:101490004122D021FFF7CAF8BDF80C0040BA00B2D3
:1014A00000F0B8F9034900F0F3F8034900F08EF8B2
:1014B00020641FBD0000AA43B81E1242FEE7FEE7EB
:1014C00070477047FFF7A0BA30B58FB02821684643
:1014D000FEF77AFE14210AA8FEF776FE01252804FD
:1014E000CDE90050002407946846FFF7F3FB08B1EC
:1014F00072B6FEE70F200A90CDE90B540D9400213F
:101500000AA80E94FFF70AFB002801D072B6FEE786
:101510000FB030BD7047FEE70907090E002804DB55
:1015200000F1E02080F80014704700F00F0000F197
:10153000E02080F8141D704708B5FFF76DFAFFF73B
:10154000C3FF1E48816941F020018161816901F07A
:1015500020010091816941F004018161816901F0FC
:1015600004010091816941F0080181618069144999
:1015700000F00800009013484FF4804201601249C7
:10158000416000218160C0E9031241618161C16154
:101590000162FEF787FF08B172B6FEE70948FFF760
:1015A00025FF0128FAD04FF47A74064905485831CE
:1015B000FFF766FF2046FEF76DFEF6E700100240DB
:1015C0000054004010000020801A060090EA010F2D
:1015D00048BF81F0004100F18881421A3CBF801A67
:1015E00089184FEAD0524FF07F4C1CEA410FA2EB12
:1015F000D15318BF9CEA026F00F03B804FF0004CC3
:101600004CEA00204CEA012121FA03FC10EB0C0CFF
:101610001ED202F1FF325FEA1C2040EBC25038BFFD
:1016200070471CF07F0F4FEA400C18BFBCF17F4F92
:1016300038BF7047C3F12003994008BF20F0010074
:10164000BCF17F4F38BF7047A0F1C04000F040B9F7
:101650004FEA3C00000A40EBC25028BF1CF0FF0FCD
:101660004FEA400CE6D018BFBCF17F4F38BF70473F
:10167000EAE79CEA026F05D010EA5C0F08BF00F0B1
:101680000040704710B500F0DDF800BF64FBBE3EBF
:101690004FF47F0C1CEAD0121EBF1CEAD11392EA51
:1016A0000C0F93EA0C0F00F0858090EA010F48BF01
:1016B00042F4807240F4000C41F400002CF07F41B1
:1016C00020F07F4000B58142A2EB03020FF2081C1C
:1016D000ACEB504EC0F100009EF800E04FEA4E0E19
:1016E00000FB0EFC38BF49004FEA2C1C02F5FA0241
:1016F0000CFB0EF34FEACE1E4FEA112C4FEAC1212C
:101700000EEB635E42EB22420EFB0CFC4FEA1C53D5
:1017100000FB03114FEA112C4FEA01310EFB0CFCC8
:101720004FEADC4C00FB0C11C14228BF09184CEBFE
:1017300003335DF804EB10EB410143EBC250B2F50B
:101740007C0F38BF704729D512F0F00F1CBF00F195
:10175000C04000F000407047008182838485868706
:1017600088898B8C8D8E8F919293959697999A9C60
:101770009D9FA0A2A3A5A7A8AAACAEB0B2B3B5B7CF
:10178000B9BCBEC0C2C5C7C9CCCED1D4D7D9DCDFA5
:10179000E2E6E9ECF0F3F7FAFE0000004FEA400C55
:1017A0000CF1807CBCF17E4F28BF7047B0F1C04087
:1017B00000F08EB890EA010F0CEAD11348BF42F452
:1017C0008072624538BF634507D213F47F0F16D08D
:1017D00080EA010000F00040704710B500F032F8D8
:1017E000097EFC3E00F005B880EA010000F00040F0
:1017F000704780EA010000F0004000F069B812F480
:101800007F0F04BF0248704780EA010000F060B813
:101810000000C07F10F0004148BF4042B0FA80F3A2
:1018200010FA03F2C3F19D030BD051EAC35101EB4F
:101830001220530638BF704700F1010008BF20F0A6
:10184000010070470EF1020E2EF0030E5EF8044BFD
:10185000244204D44FEA4102B2F17F4F11D84FEA3B
:101860004003B3F17F4F0CD80ED14FEAD07CB2F1D8
:101870007F4F0CEB4C0C0CF1020C08BF4CEBD17CF5
:1018800004E04FF0080C01E04FEAD17C0CEB4C0374
:1018900024FA03F404F00704B4F1040C06D20EEBAE
:1018A000840CBDE810404CF0010C6047DFE80CF000
:1018B000070802024FF00040A0F5800010BD084666
:1018C000420018BFD2F1807288BF00F0004010BD06
:1018D000FF2141EAD050C0057047000090EA010F97
:1018E00048BF81F000413FF578AE421A04D882F03B
:1018F0000042A0EB020011444FEAD0524FF07F4C5F
:101900001CEA410FA2EBD15318BF9CEA026F4AD0E8
:101910004FF0004C4CEA00204CEA012121FA03FC74
:10192000B0EB0C0C0FD412F0FE0F36D05FEA4C0077
:101930001DD5001240EBC25038BF70471CF03F0F5E
:1019400018BF70470BE0A2F101025FEA1C2040EBD8
:10195000C25038BF70471CF07F0F18BF7047C3F1EB
:101960002003994014BF401E20F0010070478008FA
:101970004FEA122308BF7047B0FA80FCA2EB0C02BA
:10198000CCF1280C60FA0CF093EA122F04BF00EBA4
:10199000C25070474FEAC3707047130A5FEADC1009
:1019A00008BF7047F6E79CEA026F04D010EA5C0FAC
:1019B00008BF0020704710B5FFF744FF40DFF63E38
:1019C00081F00040704700000000000000000102AC
:1019D00003040607080900000000010203040000D8
:1019E000001A000800000020100000002801000874
:1019F000101A000810000020100700004401000821
:101A00000100000010000000000000000024F400AD
:04000005080000ED02
:00000001FF
